:10000000902E0020410D00009B5B00002D0D000094
:100010002D0D00002D0D00002D0D00002D0D0000F8
:100020000000000000000000000000009D0E000025
:100030002D0D0000000000003D0E00002D0D000001
:100040002D1000002D1000002D1000002D100000BC
:100050002D1000002D1000002D1000002D100000AC
:100060002D1000002D1000002D1000002D1000009C
:100070002D1000002D1000002D1000002D1000008C
:100080002D1000002D1000002D1000002D1000007C
:100090002D1000002D1000002D1000002D1000006C
:1000A0002D1000002D1000002D1000002D1000005C
:1000B0002D1000002D1000002D1000002D1000004C
:1000C0002D1000002D1000002D1000002D1000003C
:1000D0002D1000002D1000002D1000002D1000002C
:1000E0002D1000002D1000002D1000002D1000001C
:1000F0002D1000002D1000002D1000002D1000000C
:100100002D1000002D1000002D1000002D100000FB
:100110002D1000002D1000002D1000002D100000EB
:100120002D1000002D1000002D1000002D100000DB
:100130002D1000002D1000002D1000002D100000CB
:100140002D1000002D1000002D1000002D100000BB
:100150002D10000053B94AB9002908BF00281CBF60
:100160004FF0FF314FF0FF3000F00CB8ADF1080C4C
:100170006DE904CE00F008F8DDF804E0DDE90223C3
:1001800004B07047704700BF2DE9F04786468C46A3
:100190000846089E154674461946002B40F0C1805B
:1001A0008542B2FA82F245D94AB1C2F1200300FA7F
:1001B00002FC954094402EFA03F343EA0C0C4FEAFC
:1001C000154EA8B2230CBCFBFEF80EFB18CC08FBA6
:1001D00000F943EA0C43994528D9EB1808F1FF3799
:1001E00004D2994502D9A8F102072B44A3EB0903D5
:1001F000A4B2B3FBFEFC0EFB1C330CFB00F044EA84
:100200000344A04214D92C190CF1FF3304D2A042AC
:1002100002D9ACF102032C44241A43EA07401EB170
:10022000D440002334607360BDE8F0874746DDE7C3
:100230006346F1E792BB431B01214FEA154EAFB273
:10024000200CB3FBFEFC0EFB1C330CFB07F840EA52
:100250000343984561D9EB180CF1FF3004D298455F
:1002600002D9ACF102002B44A3EB0803A4B2B3FB08
:10027000FEFC0EFB1C330CFB07F744EA0344A742C9
:100280004DD92C190CF1FF3304D2A74202D9ACF19D
:1002900002032C44E41B43EA0040C0E7C2F1200300
:1002A0009540944020FA03F12EFA03F34FEA154EDD
:1002B0009040AFB20343B1FBFEFC0EFB1C10190CC7
:1002C0000CFB07F841EA0041884522D969180CF176
:1002D000FF3004D2884502D9ACF102002944A1EBD9
:1002E00008019BB2B1FBFEFC0EFB1C110CFB07F7D7
:1002F00043EA01439F420ED9EB180CF1FF3104D2BF
:100300009F4202D9ACF102012B44DB1B41EA0041C0
:1003100093E76046E3E76146F7E76046A4E7634694
:10032000B8E7834206D916B9002108467CE7C6E93A
:1003300000E0F9E7B3FA83F78FB9834201D372453E
:1003400008D8BEEB020460EB030301209C461EB9F3
:10035000002169E73846FAE7C6E9004CF8E7C7F13B
:10036000200CBB400EFA07F522FA0CF42EFA0CF121
:10037000BA401C4320FA0CF3B8404FEA1449014339
:100380001FFA84FEB3FBF9F809FB18300B0C08FBCD
:100390000EFA43EA00439A4540D9E31808F1FF30CA
:1003A00004D29A4502D9A8F102002344A3EB0A0320
:1003B00089B2B3FBF9F809FB183308FB0EFE41EADA
:1003C00003418E452CD9611808F1FF3304D28E45C4
:1003D00002D9A8F10203214443EA0040A1EB0E0137
:1003E000A0FB02984145CE46434602D306D14D4577
:1003F00004D20138B9EB020E68EB0403002EA7D03B
:10040000B5EB0E0261EB030101FA0CFC22FA07F3D3
:10041000F9404CEA0303C6E9003199E74046C5E7D5
:100420004346D9E72DE9F04F9BB04D4D284605F0E6
:1004300055FF40B94B4804F03FFF6FF012042046CF
:100440001BB0BDE8F08F4FF480724FF4FA634FF4A5
:100450000471CDE904234AF64443DFF80C91CDE959
:100460000113CDF80C90D5F8088001212846D8F862
:10047000003001AA9847041E03DA3C4804F01CFF30
:10048000DDE706AFBB4600264FF0030A4FF0FF3210
:100490004FF0FF335946484603F002FE041E01DACE
:1004A0003348EBE7B6FBFAF30122324C03EB43038C
:1004B000F31A9A40A64600235BF8040B00F1020CE5
:1004C00034F9021B91FBF2F120F8231003F1100123
:1004D00001F03F013EF9111091FBF2F12CF82310CD
:1004E0000133402BECD10136142ECFD14FF4807262
:1004F000D8F80C3006991A489847041E04DA0121EE
:100500001D4804F0C7FE9AE7D5F8088000220121B3
:10051000D8F8103012489847041E01DA1748ADE7A2
:100520000126DFF83C904FF480724846D8F80C3032
:1005300057F8041F9847041E06F1010601DA3146F8
:10054000DEE7142EEFD1AB68022201211B690448BB
:100550009847041EE2DB0A4804F0AEFE00246EE772
:1005600030680000B46D000038020020C96D000042
:10057000E86D0000006D0000046E0000226E0000B7
:100580003B6E0000014B1B68184700BF00000020B5
:10059000014B1860704700BF0000002030B585B0E7
:1005A00004460D4610220021684606F04CF802234E
:1005B0008DF80230044B2A4621466846019304F028
:1005C0009BFE05B030BD00BF8505000080B5054627
:1005D0000E461746984604F03FFA034606F0AEF87A
:1005E0000446DFF81890424649F800303946304654
:1005F000A84754F8090000F00BFC00BF08000000F9
:100600002DE9F047058B04462807904611D40229AE
:1006100005F0070540F0CC80204605F0B7F978B129
:100620000138218B042811D8DFE800F0C2106D8555
:10063000950001290CBF45F0100545F020052583E4
:1006400088F31188BFF36F8FBDE8F08701F0070AC8
:10065000AA4500F0A5800027B9463E46A368002BB6
:1006600000F0BC8041F00801218388F31188BFF3BA
:100670006F8FA168002900F0BA800D68002900F092
:10068000B680334652462046D1F80480C047002D3C
:1006900076D02B6829461D46F0E701F007035A1F64
:1006A000012A1BD8002221F00701062B276889B2F6
:1006B000C4E9002209D13B4603E0628B0132628328
:1006C0001B68002BF9D141F002012046218305F07F
:1006D0005DF900287AD041F0200176E0042B0AD1A0
:1006E00021F0070189B22046218305F04FF910B1AE
:1006F00041F020012183218B01F0070AAA454FD048
:100700000027B946AAE7236921F0070141F0060155
:10071000062DD3F8009021832DD1B9F1000F3FD0E1
:1007200041F00801218388F31188BFF36F8F2046C1
:100730003949C84729E021F00701236941F0040144
:1007400089B2042DD3F804902183E6D000274FF01E
:10075000040A3E4682E721F00701236941F00501C2
:1007600089B2052DD3F808902183D6D000274FF009
:10077000050A3E4672E700274FF0060A3E466DE73F
:100780002B4687E7B9F1000FD1D1EFF31188202371
:1007900083F31288BFF36F8F238B23F00803238327
:1007A000258BEA062ED525F01003238305F00705D7
:1007B0006669218B002EBFF670AF00232768C4E95D
:1007C000003321F0070141F001012183218B4FF01B
:1007D000000901F0070AAA457FF440AF002F9CD022
:1007E00041F00801218388F31188BFF36F8F002F38
:1007F000C8D03D68394633465246204605F0F2F8E7
:100800002F46F4E7AB067FF51BAF25F020032383CB
:1008100005F0070500E700BF115A0000014B036017
:1008200000207047E86A000008B5044805F0A1F808
:10083000BDE80840024805F09CB800BF526E0000B9
:10084000886E0000014804F0E3BB00BFE86A0000C6
:1008500038B5044618B90F4B0F485B689847616874
:10086000B1F5683F10D0B1F5680F0DD00B4DA9421E
:100870000AD011F46861206807D00146084805F0E5
:1008800086FD00232360656038BD142205F0DBFE81
:10089000F9E700BFCC010020B66E00002C5F5CA918
:1008A000801D002008B560B34368B3F5683F0ED0E3
:1008B000B3F5680F18D0144A934220D000684FF067
:1008C000FF324FF0FF3303F0D3FC58B115E00122A3
:1008D0000368D3E8EF1F002903D1C3E8E02F002805
:1008E000F7D10AD1002008BD0368084A1B7803F538
:1008F000807352F82330002BF4D00548F3E7054805
:10090000F1E76FF4E040EEE72C5F5CA900000350D4
:10091000E98FFFFFEA8FFFFF08B520B34368B3F507
:10092000683F09D0B3F5680F13D0114A93421DD028
:10093000006803F015FD14E000220368D3E8EF1F00
:10094000012903D1C3E8E02F0028F7D109D00948D5
:1009500008BD00210368084A1B7803F5807342F83C
:1009600023100020F4E76FF4E040F1E70348EFE7DD
:100970002C5F5CA9E98FFFFF00000350EA8FFFFFA7
:1009800010B5044618B91D4B1D485B68984763684D
:10099000B3F5683F2FD0B3F5680F2CD0194A9342B6
:1009A00019D1236803BB4FF0FF324FF0FF332146CC
:1009B000154803F075FB08B923681BB90F4B1348A2
:1009C0005B68984714220021206805F03CFE4FF434
:1009D0006863636008E0B3F5683F0DD83A2B03D035
:1009E00040F6BA629342DED1206805F036FD6368B6
:1009F00043F03A03636010BD054AF3E7CC010020E1
:100A0000B66E00002C5F5CA9801D0020DC6E00002B
:100A10003A00003A08B5064940231422054805F07B
:100A2000A8FCBDE808400449044804F063BB00BFCB
:100A300080180020801D0020F06A0000046B000078
:100A400030BFFFF7FDBF00BF2DE9F04105460B4E5B
:100A5000DFF82C80324606EB0807CC1B20460949FC
:100A600005F0E4FDA01942460021083C05F0EBFD2D
:100A70002C6707F10800BDE8F08100BF000000000E
:100A800004000000D86A0000054B5A699B689A422E
:100A90001FBF044A536843F080535360704700BF40
:100AA000441F002000ED00E0154B9A6A12F0007F11
:100AB0009A6A14BF1E201D2012F0807F9A6A18BF08
:100AC0001F2012F4801F9A6A18BF022012F4002F10
:100AD0009A6A18BF212012F4802F9A6A18BF222028
:100AE00012F4003F9A6A18BF232012F4803F9A6ADA
:100AF00018BF24206FEA02426FEA12429A627047DE
:100B000000ED00E010B5194B0246986A9C6A10F49B
:100B1000805F14BF1720162014F4006F9C6A18BF62
:100B20001820A40509D5986B986A000404D51AB159
:100B30009A6A22F400429A6219200C4B9A6A12F4C3
:100B4000806F9A6A18BF1A20D2050CD49B6A13F4DE
:100B5000005F18BF1C20054A936A43F47F439362E9
:100B600000230B7010BD1B20F5E700BF00ED00E077
:100B700010B51C4B0246986A9C6A10F0100F14BF07
:100B80001120102014F0080F9C6A18BF1220A4072F
:100B900009D5586B986A000604D51AB19A6A22F0F2
:100BA00080029A6213200F4B9A6A12F0010F9A6A20
:100BB00018BF142012F0200F9A6A18BF1520D4060F
:100BC00058BF9B6A074B9A6A920642BF5A6A22F440
:100BD00000525A629A6A42F0FF029A6200230B7036
:100BE00010BD00BF00ED00E0F0B5474B04465B6868
:100BF00000258BB0C3F3080385F31188BFF36F8F13
:100C000002F07F40B0F17F4F11D102F00C000828B4
:100C10000DD010074CBF0C4601250022033B8DF878
:100C20000720032B05D8DFE803F02462665F2C461B
:100C3000F3E700239DF80720CAB902AE04F12007AC
:100C4000324620686168083403C2BC421646F7D1B8
:100C5000099A002D53D0C2F3080121B96FEA52223C
:100C60006FEA42220992184602A904F08CFF0BB0E9
:100C7000F0BD254BDA6A9107DBD4DA6A002AD8DBAB
:100C8000DA6A5200D5D55A69A16942F480725A6174
:100C9000BFF34F8FBFF36F8F5A6931F8021C22F4F4
:100CA00080725A61BFF34F8FBFF36F8F4DF60272A0
:100CB000914209D09A6AD2B242B101200DF10701E6
:100CC000FFF756FF0346B5E72368B3E79A6A12F4C5
:100CD0007F4F05D001200DF10701FFF713FFF1E76A
:100CE0009B6AB3F5803FA4D3FFF7DEFEEAE700205E
:100CF0000DF10701E4E700200DF10701EDE722F413
:100D0000FF7222F00102ADE700ED00E0064B5A69E8
:100D100042F010025A615A6942F480625A615A697B
:100D200022F008025A61704700ED00E0EFF30880FE
:100D3000EFF3098101B57246FFF756FF01BD00BF11
:100D4000002080F31488BFF36F8F002080F30A889F
:100D500080F30B880F4880F3088801F065FF0020BE
:100D60000D490860BFF34F8F00F02CF8202080F36E
:100D700011880A484FF40061401880F30988EFF3A6
:100D800014800221084380F31488BFF36F8F00F0B2
:100D9000EBF80000902E002094ED00E050210020A0
:100DA000002318460649D1F89020C2F30722934247
:100DB00000DB7047C1F89830C1F8A0000133F6E7B6
:100DC00000ED00E010B572B6002484F31388FFF73D
:100DD000E7FF23464FF0FF300C4A03F120010133B7
:100DE000102B42F82100F8D100234FF0FF30074AC2
:100DF00003F160010133102B42F82100F8D162B6F3
:100E0000BFF34F8FBFF36F8F10BD00BF00E100E055
:100E1000084B9B6883420BD1EFF3058343B1064B2C
:100E20005A6842F080525A605A6A22F400425A626A
:100E300003F018BE441F002000ED00E014498A684A
:100E40004FF030001044EFF3098C80E8F01F2020B1
:100E500080F31288BFF36F8F0E4F4FF000664A6920
:100E60008A603E60106F0C4C2060506F0023536707
:100E700080F3118802F1300090E8F01F8CF30988AC
:100E800002F1000004B504F093FEBDE80440704791
:100E9000441F002004ED00E09C1D00201EF0040F04
:100EA0000CBFEFF30880EFF30980816911F8021C91
:100EB0000229FFD001B5724604F06BFE01BD00BFF0
:100EC00040B2002807DB01234109034A00F01F005C
:100ED000834042F82130704700E100E040B2002832
:100EE0000CDB01220649430900F01F008240203339
:100EF00041F82320BFF34F8FBFF36F8F704700BFC0
:100F000000E100E0054B420953F82220012300F0E4
:100F10001F0003FA00F01040704700BF00E100E03E
:100F200040B2002801F10101ACBF00F16040064B66
:100F30004FEA4111C9B2ABBF00F5614000F00F00AC
:100F400080F800131954704714ED00E0044B054A73
:100F500023F07F039360BFF34F8FBFF36F8F704712
:100F60000000000000ED00E008B5FFF7EFFF074AC2
:100F7000D2F8883023F47003C2F8883002F0D4FF2E
:100F800003F092FE00F046F803F00EF800ED00E0EA
:100F900042F8203C009B0B4942F81C3C019B21F08D
:100FA000010142F8183C029B42F8081C42F8143C2C
:100FB0004FF0807342F8043C0023203A02654367F7
:100FC000704700BFCD05000000B50B4B154698607B
:100FD000026F0A4B0E461A60036E83F30B882C4691
:100FE00086F309880020064B9847204600210022FE
:100FF0000023044C204700BF441F00209C1D0020FC
:10100000B95B0000CD0500001022014B1A6170474A
:1010100000ED00E0002320210348C2180133452BD6
:1010200082F80013F9D1704700E100E008B5EFF352
:101030000583064A103B02EBC30152F833004968AE
:101040008847BDE80840FFF71FBD00BF506800009B
:101050001FB5094C094A23460121094800F0FAF856
:1010600000230393074B0121E41A01A80193029482
:1010700000F0FAF804B010BD0000072000000020C6
:10108000146B0000C002002010B50C7A0B6804F04D
:101090001F0223F01F031A43CB68640923F01F03C8
:1010A000054943EA440343F00103C1F89800C1F83D
:1010B0009C20C1F8A03010BD00ED00E010B5074B3A
:1010C000D3F89030C3F30723013B984202D8FFF7CF
:1010D000DBFF10BD6FF01500FBE700BF00ED00E087
:1010E0002DE9F04F0F46144606464FF000084D4DCF
:1010F00085B0B84580F29280D6F80490B9F1000F1F
:1011000036D0B9F11F0F40F2878019F01F0F40F061
:101110008380D6F800A01AF01F0F7DD1504604F04E
:1011200087FD834609EB0A00013804F081FD834501
:1011300072D11BF1160F6FD05C456DDDC5F898B00C
:10114000D5F89C10C5F898B0D5F8A03021F01F0153
:1011500043F01F0AD6E900321A44994202F1FF39DE
:101160001ED1CA4508D131465FFA8BF004F069FD03
:1011700008F101080C36BCE73146C5F898B0D5F83F
:101180009C3022F01F0203F01F031343C5F89C306C
:10119000E0B204F056FD10F1160F3DD0441CE7E715
:1011A000C5F898B0D5F8A020013B23F01F0302F04A
:1011B0001F021343CA453146E0B2C5F8A030E8D05B
:1011C00004F03FFD10F1160F26D0C5F898B0D5F801
:1011D0009C209DF808300AF1FF3A62F304038DF871
:1011E0000830D5F8A0309DF808205B0863F347125B
:1011F0008DF80820D6E900321344009323F01F0332
:101200005344A3EB0903013023F01F036946C0B226
:101210000393FFF753FFBEE76FF01504204605B0B8
:10122000BDE8F08F00ED00E00522044BC3F89420E8
:10123000BFF34F8FBFF36F8F704700BF00ED00E02B
:10124000BFF35F8F0022024BC3F89420704700BFAA
:1012500000ED00E010B5034C2278FFF741FF20704D
:1012600010BD00BF482100202DE9F74F294D8A46C7
:1012700006464FF00008AB46274FD0451BDAD6F89C
:101280000490B9F1000F3FD031680846019104F095
:10129000CFFC0199044609EB0100013804F0C8FCB9
:1012A00084424FF014021D4B08D002FB08F36FF08C
:1012B00015024BF8032003B0BDE8F08F14F1160FB0
:1012C0002C60F8D01978A142F5DD02FB08B0C7F810
:1012D0009840C7F89840D7F89C4000F10801007B7F
:1012E00064F304000871D7F8A0000C79400860F39B
:1012F00047140C71D7F89C1021F01F016960D7F8D2
:10130000A01021F01F01296108F1010814350C36E5
:10131000B3E700BFA01D002000ED00E04821002041
:10132000F0B54149414CD1F890302568C3F307230B
:101330009D4287B075D80020FFF782FF3C4BC1F873
:10134000C030854216D13B4C01A82570FFF766FAE4
:1013500000250646384FAE4213D10020237832498B
:10136000D1F89020C2F30722934254DBFFF75CFFD1
:1013700000202FE0616801EB0011FFF785FE0130CE
:10138000DFE70199280101EB0513DA683A40B2F56D
:10139000001F21D0B2F5800F2BD0B2F5801F38D1BD
:1013A0005A689B680958013B22F01F000344012042
:1013B000844623F01F0340EA4C10CDE902218DF84A
:1013C000100002A920780593FFF778FE00281DDAA7
:1013D0006FF0150007B0F0BD5A689B680958013BD3
:1013E00022F01F0003444FF0020C012023F01F03E2
:1013F000E1E75A689B680958013B22F01F0003444B
:101400004FF0000C062023F01F03D4E723780133AC
:10141000237001359FE7C1F89830C1F8A00001336F
:101420009EE74FF0FF30D5E700ED00E0206B0000B5
:10143000AAFF4400482100200000F0FF08B5024B3D
:101440001B689847002008BDB41D0020034B044AC8
:101450001860937843F0020393707047B41D002026
:101460002400002008B50649064821F00701C1F113
:10147000005202F5E02204F022FA002008BD00BF6D
:10148000972E0020B81D0020054B03EB8000D0F8FC
:10149000003223F0E04343F04053C0F8003270477D
:1014A00000258450052370B5144D154E2C78013459
:1014B000B4FBF3F303EB8303E41A04F059FE114A7F
:1014C000137823B156F82430C01A072814D94FF0E6
:1014D0005023D3F8141141B10021C3F81411D3F8EB
:1014E00014312C700CB9012313702C7804F040FED9
:1014F00046F82400012070BD0020FCE74A210020AE
:10150000C41D002049210020012208B50B4B0C49C5
:10151000C3F8002502230020C1F8D036FFF7B4FF3E
:101520001046FFF7B1FFC1F80427C1F80429C1F83C
:10153000002BBDE8084000F0A5B800BF0010005027
:101540000040005007B50DF1070001F091FC0F4B72
:10155000984218D14FF480620D4B0E49C3F8B8255C
:101560004FF40062C3F83C259DF8070004F017FE15
:101570009DF80700084904F00DFE01209DF8073092
:10158000984001F06FFC03B05DF804FB0000AD0B68
:1015900000A002502CA0025028A1025048B1054BD7
:1015A000054A1B68B3FBF2F35843044B43F00103B5
:1015B000184770472001002040420F00E06A0000F9
:1015C000002170B5104C114D114E000714F8013B6D
:1015D00003F01F025B090FD0012B0FD1334603EB41
:1015E0008203D3F80022013122F0E04202430429B1
:1015F000C3F80022EAD170BD2B46F0E70023803209
:1016000053F82230FFDE00BF1C6F0000002584501D
:10161000002884502DE9F041064601200D46FFF7D1
:10162000CFFF4FF47F03D3F83021D3F83431072AAA
:1016300020D1023B032B02D8114AD35CD3B14FF027
:1016400050244FF0010800270520C4F81886C4F87C
:10165000147604F09DFD4046C4F8148604F098FD0D
:10166000C4F81476C4F8187630462B46BDE8F0412D
:10167000002118474FF050230022C3F81426F3E747
:10168000186F00000149024804F0CFB94C6B00000C
:10169000D81D0020084B70B5C31A0D4607499B1092
:1016A000044659434022064804F003FB2B460146FA
:1016B0002046BDE870401847081E0020B76DDBB615
:1016C000B0670000402373B50B4C0093041B0B461E
:1016D0000D460A49A41061430646094A094804F028
:1016E00014FB011E05DA30462B4602B0BDE87040FF
:1016F000184702B070BD00BF081E0020B76DDBB6F2
:10170000755D0000B067000010B5EFF31184202371
:1017100083F31288BFF36F8F074A136823F0020127
:10172000DB07116002D4012004F045FD84F3118829
:10173000BFF36F8F10BD00BFA81E00202DE9F84336
:101740000022012106460520FFF7EAFB144801F0BC
:101750000FFC144B98421FD14FF0502343F6CD326B
:10176000C3F85C2501F014FC00244FF01C090C2781
:10177000DFF834803569414609FB045004F055F91F
:10178000002807DB012307FB04551C44042CAB672E
:10179000F0D10020BDE8F8836FF00400FAE700BF45
:1017A000A51800000000AD0B586B00001FB500220B
:1017B0000123CDE902236B46084ACDF800D0CDF8CD
:1017C00004D004F0D0FA002805DB4FF48042002357
:1017D000684602F049FE05B05DF804FBAB5D000011
:1017E0000C22104B014602FB0033002030B4D3E939
:1017F0001C521867EFF31180202484F31288BFF382
:101800006F8F9C6F04F0C00444F002049C6780F367
:101810001188BFF36F8F1DB12B4630BC02481847AB
:1018200030BC7047081E0020B067000010B4EFF312
:101830001182202383F31288BFF36F8F174801684A
:1018400041F002040460C80707D482F31188BFF393
:101850006F8F012010BC01F0B3BB4FF05021D1F8C5
:101860000C04D1F80C14C907EFD5EFF3118083F302
:101870001288BFF36F8F0A498B6F03F0C00343F0E8
:1018800002038B6780F31188BFF36F8F82F3118897
:10189000BFF36F8F002010BCFFF7A2BFA81E00206F
:1018A000081E0020092813D8DFE800F005101212E6
:1018B000121212120E0C074B986F10F0070007D18E
:1018C000FFF78EBF0220FBE70320F9E70120F7E7CF
:1018D000704700BF081E0020C3B21C20014A03FB52
:1018E00000207047081E00202DE9F0410122074624
:1018F0003649D1E8EF3FC1E8E02F0028F9D133B9EC
:10190000334934484B60CB608A6004F0A1F87B1EF9
:10191000012B2BD8012F07D14FF05023D3F81C34C3
:1019200003F00303022B21D004F09EFD0546F8B915
:10193000294B1B78E3B14FF0502302220646C3F82F
:1019400008234FF05024DFF89480D4F81824D4F8FA
:101950001834D20315D503F00303022B01D0012F55
:101960000FD16DB386F31188BFF36F8FBDE8F0819F
:10197000EFF31186202383F31288BFF36F8F0125C5
:10198000DFE7C5B1304604F037F9D4F81835DBB2DB
:10199000012BDAD1D4F80421002AD6D00022C4F8D1
:1019A0000421D4F804210222C4F818252022C8F802
:1019B0008021A360C9E70021212004F0C5FDE4E7F0
:1019C0004FF050230222C3F80423CFE7041E002067
:1019D000F41D0020241E00204D21002000E100E025
:1019E00008B5074804F07AFC38B10648FFF72EFD29
:1019F0000448FEF7CDFD002008BD6FF01200FBE7A4
:101A000010680000091A00000A2838B50446074D7E
:101A100004D1AB680D2128465B689847AB68034842
:101A20005B68E1B29847204638BD00BF10680000EF
:101A3000F0B51646426801F01F04107B87B044EAF7
:101A400040141069002871D0B6F5001F02F110058E
:101A500006D12146284604F02EFC002007B0F0BD38
:101A60000027B6F5800F01A80197476039D1B3F17F
:101A7000007F14BF052304238DF804300023CDE933
:101A80000403039393680DF1030723FA01F111F0A6
:101A900001013DD1B6F1A07F3AD104F01F036209E4
:101AA00003F1800328D0012A46D1254A52F8233079
:101AB000DB072DD43A462146284601F087FD214B0D
:101AC00098421BD002972146284603AA01F03AFC0F
:101AD0001D4B98422DD101222146284601F0D8FD08
:101AE000BBE7B3F1C06F05D0B3F1007F14BF012392
:101AF0000223C1E70323BFE7144AD7E73946284644
:101B000001F0C0FD104B9842DCD06FF00B00A5E750
:101B10003A462146284601F059FD0B4B9842D2D156
:101B200028469DF8031001F0A7FDCCE76FF0850073
:101B300094E76FF0150091E751F82330FFDE00BF06
:101B4000002884500400AD0B0000AD0B002584502C
:101B50004209034670B502D0012A17D070BD0D4E60
:101B6000326951680029F9D0012503F01F030C6880
:101B70009D400029F2D08A682A4002D030464B6846
:101B800098472CB1236821461C46F2E7024EE7E74E
:101B90002346F8E7F0670000D067000038B54568D5
:101BA0002B69B3B11035284601F05CFD044680B9BD
:101BB0000146284601F024FD084B98420BD12246ED
:101BC0002846074901F0FCFC224605210D20FFF7BD
:101BD000A7F9002038BD6FF00400FBE70000AD0B53
:101BE000511B00002DE9F04340F206354668D0064F
:101BF00048BF0320337B02EA050558BFC2F34010FB
:101C000087B001F01F07B5F5837F144647EA4317F5
:101C10008DF8030044D00DD8062D16D005D8A5B1F7
:101C2000022D3FD06FF0150037E0B5F5807FF9D178
:101C300001250AE040F20222954235D0B5F5407FF9
:101C400034D0B5F5007FEDD102250123220303FA3C
:101C500001F12DD573689960326982BB07F01F03CB
:101C60007F092AD0012F77D13D4A02EB830284F409
:101C70008033D2F80012C3F30043C4F3404444EA73
:101C8000430421F4706144EA800421F00F0144EA26
:101C900005230B43C2F80032002007B0BDE8F083F3
:101CA0000725D2E70425D0E70525CEE70325CCE7B5
:101CB000630344BF7368D960CEE72A4AD5E710367C
:101CC000394630460DF1020201F080FC14F4403F29
:101CD00080460CD13946304604F0EBFA224B984549
:101CE000DAD130469DF8021001F0C6FCD4E74FF07F
:101CF000000901AB3946304603AACDE90439CDE9E4
:101D00000199CDF80C9001F01DFB174B9842C3D1FF
:101D100014F4003315D09DF8033084F48034C4F3F8
:101D200000448DF80E3039464B46304603AA8DF8F4
:101D30000C508DF80D4001F0C1FB0B4B9842ABD11C
:101D4000CCE7CDE9043339460DF10303304603AA4D
:101D5000039301F0F7FAF0E7803352F82330FFDE07
:101D600000288450002584500000AD0B002330B5BE
:101D700085B0CDE90133039390F8E530044633BBD9
:101D800000220023D4F8800001A902F089F900287C
:101D900035DA6FF00B05D4F8DC0001F065FF94F83C
:101DA000E9305B0702D5206803F0A9FE029911B162
:101DB000E06904F0ECFA019919B1D4F8800004F05C
:101DC000E6FA042384F8E430284605B030BD01A9C2
:101DD00004F051F80028DCD094F8E530012BCFD185
:101DE000029B0022C4F8E030D4F8DC0001A901F025
:101DF00073FE094B98420CD06FF00405CBE794F8C2
:101E0000E530002BECD1D4F884309B08ADF80C30D1
:101E1000E6E70025D8E700BF0000AD0B37B5044664
:101E2000002201212820FFF77BF8636800215D6B09
:101E300001AA284604F023F9002819DB019B2A682F
:101E40001979186800F012FB002811DB042308221E
:101E50000849094804F0EAFA042308220749084817
:101E600004F0E4FA00202469FFF736FD206000202A
:101E700003B030BDE41E002084000020C41E0020FA
:101E8000E8000020F0B5044688070F4685B04AD523
:101E90005C4D95F8E430D5F8E010032B04BF012326
:101EA00085F8E430002933D06368994202D0E869AC
:101EB00004F06DFA0023D5F8DC00C5F8E03001F03D
:101EC000D3FE95F8E930590702D5286803F017FECC
:101ED0002168002938D16368002B71D1FB0740F1DC
:101EE0008E800023474CCDE90133039394F8E5300D
:101EF0004BB194F8E630002B6DD0D4F8E03002936B
:101F00000123ADF80C3001A93E4803F0DCFF76E078
:101F1000D5F8DC0001F0A8FE95F8E9305A0702D5A3
:101F2000286803F0ECFD002CD2D1364B93F8E42066
:101F3000032A02D0042283F8E420D3F8DC0005B0A1
:101F4000BDE8F04001F07EBE2E4D95F8E76026B169
:101F5000D5F8800004F01BFABDE7238901919B00AE
:101F600002930022002301A905F1B40002F0C6F893
:101F700000280BDA042385F8E4302168D5F88000C6
:101F800004F005FA6368EBB91E4BD6E795F8E53027
:101F90005BB16368002BA1D01A4AD2F8E0109942D5
:101FA00012D1012382F8E730EEE795F8E660002EC3
:101FB000EFD0012385F8E7306368002BECD1E3E72D
:101FC0000026E9E70126E7E71946D06904F0DFF9C2
:101FD000002ED9D182E7204601A903F04CFF00284A
:101FE00091D194F8E430032B4FF0010305D1D4F8DC
:101FF000E02084F8E630029283E784F8E83005B008
:10200000F0BD00BF340000202DE9F04F05690F46F8
:1020100095F8E4C01446BCF1010FD0F804A095B0C7
:1020200004D06FF0150015B0BDE8F08FD2F8049021
:10203000B9F1000F24D1284603F0BEFF7B1E012B0F
:102040001BD895F8E9303C2269F30003494685F82E
:10205000E93005F1140004F0F6FA022F0BD195F8DF
:10206000E9303C226FF34103002185F8E93005F1A6
:10207000780004F0E8FA0020D5E7002FEFD0FAE767
:10208000D66816F00306CCD10DF1280E0AF10C0823
:10209000B8E80F00AEE80F00B8E80F00AEE80F0098
:1020A00098E8030023788EE80300182B73D006D835
:1020B000082B72D0102BB4D1CDF804C003E0202B34
:1020C000AFD103220192A27802F00708B8F1030F02
:1020D00065D0B8F1040F67D0B8F1000FA1D1CDF8E9
:1020E0000C8012F038029AF82CE0059299D194F8FD
:1020F00001B0BBF1020F5BD0BBF1010F91D1E278CF
:1021000002F00602062A029255D1DAF80420D2F82B
:102110006025002A80F2A2800023049395F8E9202C
:1021200063F3820285F8E92094F90320E378002A1A
:10213000FFF677AF5B063FF574AF7B1E012B40F2D5
:102140009080002F97D10FCC05F178060FC6236839
:102150008DF83DC03360039B8DF83E808DF83F3095
:10216000019B8DF841B08DF84030049B8DF848E01C
:10217000119305F18C040AAE0FCE0FC40FCE0FC41D
:1021800096E8030084E8030095F8E93043F0020381
:1021900085F8E9306FE7022294E7019693E7002182
:1021A0004FF0010803919CE701218846039198E7CD
:1021B000DDF814B0A3E7029A002A7FF432AF5B0087
:1021C000079300239AF838203E49069206983E4A23
:1021D0000493022818BF11464FF0FF33089109936A
:1021E0003A4B079A33F826A0079BBAFBF3F302FB9E
:1021F00013A31BBB0AFB09F1089A080502EB510265
:10220000090BFDF7A7FFB0F5801F17D84FF4801317
:10221000B3FBF0F3089AB2FBF3F3B3FBFAF3099ABA
:10222000994594BFA3EB0903A9EB0303934205D29D
:10223000F2B20592020304921BB109930136092EF2
:10224000CED1224B059ADDF808C003EB820393F848
:1022500002E0069B003B18BF01235FE701220292C8
:10226000ADE7A14605F11406B9E80F000FC6D9F88D
:1022700000308DF83DC03360039B8DF83E808DF8B3
:102280003F30019B8DF841B08DF84030049B8DF8B4
:1022900048E0119305F128060DF12809B9E80F006F
:1022A0000FC6B9E80F000FC699E8030086E80300DF
:1022B00095F8E930022F43F0010385F8E9303FF447
:1022C00042AFD8E60044AC000048E801806D000051
:1022D000F8B5022907460D461646046908D194F858
:1022E000E93003F00303032B17D06FF00400F8BDAF
:1022F00001290BD194F8E93013F0010FF5D0042E29
:102300007CD8DFE806F0185858736C000029ECD12F
:1023100094F8E93013F0020FF0E7282204F18C0161
:10232000A01804F098F90028DFD1226AD4F884308C
:102330009A42E4D0D9E794F8E430012BD5D10023B8
:1023400084F8E550A4F8E63084F8E8303C697D680C
:1023500094F8E5302A68012B0CBF04F1280104F140
:102360008C01D4F8DC0001F0E5FA354B9842BCD181
:10237000022384F8E43095F838306A68991E4B429D
:102380004B41C2F82C3594F8E930580739D52D4B1C
:102390000022A360032320682261E360211D03F073
:1023A00057FB002838DAD4F8DC0001F05DFC01238B
:1023B00084F8E43099E794F8E430022B95D194F84E
:1023C000E530AB421AD1022E4FF003031FD1B5FA0C
:1023D00085F56D0984F8E43084F8E6501CE094F843
:1023E000E430042B81D12946204622E094F8E430E1
:1023F000022B13D194F8E530AB4211D06FF01500E9
:1024000075E72046FFF7B2FC00EAE0706FE784F85A
:10241000E430012384F8E630002068E7012B06D081
:102420000123D4F8DC0084F8E73001F00BFC2946E6
:10243000386903F0C1FD012384F8E430ECE700BF04
:102440000000AD0B9D5E0000036803F01F025B09F6
:10245000026004D0012B034818BF002070470248D7
:10246000704700BF00288450002584502DE9F04FAC
:102470001546834640F2FF18DFF8C091DFF8C0A18F
:1024800085B000EB8101594503D1002005B0BDE8BE
:10249000F08FDBF80030C3F3C322082AC3F308042B
:1024A00000F2C6801B0E444508BF4FF0FF3419F8F8
:1024B0000270222B00F2BF80DFE803F01221292CEA
:1024C00033392CBDBDBDBD4875787B7E8184878A3C
:1024D000BDBD8D999C9FBDBDBDA2A9ACAFB2B500DD
:1024E000C5F80C45601C0FD0012603A80394FFF724
:1024F000ABFF039B06FA03F3836032462FE0661CB2
:10250000C5F8144540F092800BF1040BBBE7C5F809
:102510000845E7E7C5F81045621CF5D00026002203
:102520001DE0621CC5F80845EED0002604E0C5F8A1
:102530000C45631CE8D0012603A80394FFF784FF31
:102540000122039B02FA03F3C36008E0C5F80845C3
:10255000002FE1D1631CD7D0002606273246DBF8D6
:102560000030039403F40040002818BF002203A8A1
:1025700018BF012601930092FFF766FF039C019BA1
:1025800000EB8400D0F80042C3F3412C009A3B02D8
:1025900043EA8C03134304EA0A04234343EA460351
:1025A000C0F80032B0E7C5F80C45D1E7C5F864457E
:1025B000BFE7C5F86445AFE7C5F86845B9E7C5F8B2
:1025C0006845A9E7C5F86C45A6E7C5F87045B0E7CA
:1025D000C5F86045ADE7C5F86045661CDBF800301E
:1025E00092D0C3F30043002B7FF47EAFA3E7C5F87E
:1025F0006445F2E7C5F86845EFE7C5F86C45ECE7D8
:10260000C5F82445601C3FF47FAF012687E7C5F875
:10261000284567E7C5F83045F4E7C5F83445F1E7E4
:10262000C5F83845EEE7C5F83C455BE7002664E7AA
:102630006FF015002AE76FF0850027E74D6F000067
:10264000F0F0FCFF2DE9F04104460D46476803F029
:102650000BFF4FF0200888B9264B1B7873B1642616
:10266000606803F039FDF0B9012003F091FD013EEF
:10267000F6D10021212003F067FFF0E7EFF3118688
:10268000314688F31288BFF36F8F606803F024FD32
:10269000A8B986F31188BFF36F8FEFE786F311882F
:1026A000BFF36F8FE5E7EFF31186314688F31288A9
:1026B000BFF36F8F606803F00FFD0028EED0FB6959
:1026C00000201D706368FA691B68C3F84425012265
:1026D000C3F84825C3F82001D3F82041C3F85801B6
:1026E000D3F858019A6081F31188BFF36F8FBDE86A
:1026F000F08100BF4D210020F8B5054600220121E0
:102700000820FEF70DFC0820FEF7DAFB6C680121BB
:10271000E06803F012FD6B6819682369C1F824357D
:10272000A27D637D207D1343228B02431343C1F8B6
:102730006C356E68D6E9004313F001033DD02F6974
:1027400007F1080000F094FB2A4B98424FD1387AE9
:1027500004F10C0204F5907103F026FD387A01278C
:1027600007FA00F000F07EFB0823C4F80035F36997
:10277000C4F844350023C4F84835A760D4F858316C
:10278000002BFBD00021C4F800156B68D86803F05B
:10279000D4FC08216A681368C3F80015117A51B98E
:1027A000126AC3F834250122C3F83825C3F8101182
:1027B000D3F810111A600020F8BD0822C4F80025D3
:1027C000F269C4F84425C4F848350123A360D4F85D
:1027D0002031002BFBD00023C4F82031D4F8203165
:1027E0000123E3604FF48073C4F80433C6E76FF04D
:1027F0000400E1E70000AD0B0123834070B5DC432A
:102800000B4AD2E8EF1F01EA0405C2E8E65F002E9A
:10281000F7D14FF4803282400648C0F80823BFF356
:102820005F8FBFF36F8F0B4214BF0120002070BD7C
:10283000141F00200050015070B40E4922F07F4652
:10284000D1E90034D01AC31844F10004C1E90034BE
:10285000A6F50013B3F5400F09D2074B1B681A0AFF
:102860001B069C19054B42F10005C3E9004570BCED
:1028700002F0F6BAD0160020181F0020D81600204B
:10288000D9B101230D4A8340D2E8EFCF4CEA030CC3
:10289000C2E8E1CF0029F7D14FF48033084A8340E2
:1028A000C2F80433074BD3E8AF3FC340DB0742BF56
:1028B0004FF40012044BC3F800217047141F00208E
:1028C00000500150101F002000E100E00D4B18687F
:1028D000010A0006BFF35F8F0B4BD3F804351818BD
:1028E00041F10001B3F5801F0AD2084BD3E9002360
:1028F000904271EB030303D210F1807041F10001AB
:10290000704700BF181F002000500150D81600204B
:102910002DE9F04F85B016461F4604469DF840A0AD
:10292000FFF76AFF0190FFF7D1FFB04271EB070399
:1029300052D23B4B301A67EB0101984271F1000112
:102940004DD2384B03EB0413D3E902239F4208BF57
:10295000964258D04FF48038334908FA04F820469C
:1029600026F07F4BC1F8488303F0F6FB4FF00309D4
:10297000584604F15005AD00ADB205F1502504F5FF
:10298000A87305F580350293029A20F07F4341F841
:102990002230C1F84483D1F80435244AC01A0338E0
:1029A00020F07F4090422ED9286868B1D1F80435D4
:1029B000A3EB0B0020F07F40B0F5000F039322D96A
:1029C000204603F0C9FB039BBAF1000F07D109EBC6
:1029D000030009F10109D7E7BAF1000F09D06FF040
:1029E000150520460199FFF74BFF284605B0BDE8C5
:1029F000F08F01230E4AA340D2E8EF0F1843C2E83C
:102A0000E10F0029F8D107490E982301C8500F9B08
:102A100001EB04120025C2E902675360E1E700BF41
:102A200001008000C016002000500150FDFF7F0013
:102A3000101F00207FB500254FF0FF304FF0FF3111
:102A4000194C1A4B0226C4F80833C4F84833184B03
:102A5000C4F80855C3E902014FF480334FF4001263
:102A6000C4F80433134B0121C4F804631520C3F8E0
:102A700080212A46FEF754FA1520FEF721FA012399
:102A80000D4AA360236013600C4B0D4A0093284647
:102A90000023CDE90155FFF73BFF3046FEF724FF49
:102AA000284604B070BD00BF0050015003000F0065
:102AB000C016002000E100E0141F002039280000AB
:102AC000FFFF7F002DE9F7432E4BD3F80423900737
:102AD0000BD5D3F8042142B10022C3F804212A4ABD
:102AE000D3F80431136801331360264AD2F8043353
:102AF000D90326D5254BD3E8EF1F21F00100C3E809
:102B0000E40F002CF7D1CB0702D4D2F84031C3B187
:102B100000251C4CC4F84051D4F84031FFF7D6FED4
:102B2000EFF31182202383F31288BFF36F8F184BCA
:102B3000D3E90267B042B94106D282F31188BFF3EC
:102B40006F8F03B0BDE8F0834FF0FF38D3E900107A
:102B50004FF0FF391D60C3E902894FF48033C4F898
:102B60004833C4F84051D4F8403182F31188BFF3A0
:102B70006F8F0029E5D0009032463B4628468847B3
:102B8000DFE700BF00500150181F0020101F002079
:102B9000C016002030B5431C124C85B005D08442CD
:102BA000A8BF0446012CB8BF0124FFF78FFE0E4BCF
:102BB0000C4DD3E90013401AB0F5000F0FD22218C4
:102BC000AA4228BF2A46002052180849CDE9010030
:102BD000009143F10003FFF79BFE05B030BD2A468C
:102BE000F1E700BFFFFF7F00D0160020392800006A
:102BF00008B5FFF76BFE024B1B68C01A08BD00BF8B
:102C0000D01600204FF47F03D3F83021D3F83431AD
:102C1000072A05D1023B032B02D8024AD05C704739
:102C200000207047686F000008B5FFF7EBFF58B150
:102C3000644BD3F8202A3AB90D21C3F8201A012198
:102C4000C3F81C19C3F81C290022D30003F57F0325
:102C5000D3F80013013107D0D3F800130132D3F8B1
:102C60000433202A0B60F0D1FFF7CCFF002840F09E
:102C7000A080FFF7C7FF40B1534B544AC3F830253B
:102C80004FF050230122C3F858254FF47F03D3F8A7
:102C90003021D3F83431072A09D1023B032B06D85F
:102CA0004B4AD35C1BB100224A4BC3F84C25FFF7BB
:102CB000A9FF50B14FF05023D3F80024D10742BFF1
:102CC0000022C3F81421C3F818214FF47F03D3F86E
:102CD0003021D3F83431072A09D14FF05023D3F8EB
:102CE0000024D20744BF6FF00102C3F80024FFF7AD
:102CF00089FF18B16522334BC3F80C274FF47F03CB
:102D0000D3F83021D3F83431072A16D1314BD3F818
:102D10002034002B11DA4FF050230322C3F818257A
:102D200001229A60D3F80421002AFBD00022C3F8C4
:102D300004210122DA60C3F818254FF47F03D3F889
:102D40003021D3F83431072A23D1023B032B02D898
:102D5000214AD35CEBB17E221A4B1B49C3F80C27E6
:102D6000C3F83C297F231D4AC2F818310023C1F85B
:102D7000043EC1F8083E01F54821C1F81031C2F8FF
:102D80002431C2F82C3102F5FF1202F58052C2F84C
:102D9000A032134AD2F88C3043F44063C2F88C302E
:102DA000104A114B1168C3F84415D269C3F84C2579
:102DB00008BD2922034BC3F80C270322C3F83C2784
:102DC00057E700BF00400050009003504400EFBEA2
:102DD000646F000000200350606F0000002000506E
:102DE00000ED00E00080FF000060005030B5046896
:102DF000ACB1B4FA84F30122C3F11F03DBB29A40F1
:102E000024EA0202D0E8EF5FA54204D1C0E8EC2F2B
:102E1000BCF1000FF6D1EAD102480B7030BD024878
:102E2000FCE700BF0000AD0B0200AD0B10B503685E
:102E3000CB40DB0710D401238B40026843EA020138
:102E4000D0E8EF4F944204D1C0E8EC1FBCF1000F72
:102E5000F6D1F2D1014810BD0148FCE70000AD0BEE
:102E60000400AD0B014BC3F804057047007001501E
:102E70000146014800F044B9240100200328F7B5B9
:102E800006462ED84FF05021364B374A33F8100003
:102E9000925DC1F8080300250A44012142F2107432
:102EA0004FF05027314B116033F816308E4203F14A
:102EB00050231D601B688DF8071008BF0DF1070532
:102EC000022E32D0032E40D0012E1CD0D7F8183459
:102ED00003F480333DB923B1012003F059F9013CDB
:102EE000F0D103B0F0BDD7F8182402F003022A7025
:102EF000002BF6D09DF807000128F2D103F048F925
:102F0000013CDDD1EDE7D7F80C3403F480333DB953
:102F1000002BE6D0012003F03BF9013CF3D1E0E7C0
:102F2000D7F80C2402F00102E1E7D7F85C3403F48F
:102F300080333DB9002BD4D0012003F029F9013CA6
:102F4000F3D1CEE7D7F85C24ECE7D7F85434DB03B1
:102F5000C7D5002DCED1012003F01AF9013CF4D1E0
:102F6000BFE700BFAC6D00006C6F0000A46D0000F7
:102F7000044B1A7922B9012218601A71024870476D
:102F8000024870471C1F00200000AD0B0C00AD0B69
:102F900008B50A4B1B6833B10520FDF7B3FF10B924
:102FA0000520FDF78DFF4FF050230122C3F81825AF
:102FB000C3F81425C3F8802508BD00BF1C1F0020DE
:102FC00010B5032845D8DFE800F01802554F00225D
:102FD0004FF480730121002003F1502318601C6816
:102FE000012402F150221460284A1268002A47D0B6
:102FF0004FF05023C3F804132BE04FF05023D3F8C5
:103000001814D3F81824C90312D502F00303022BB5
:1030100005D0012B02D00020FFF730FF01234FF035
:1030200050220221C2F8183508224FF48273D2E7E9
:10303000D3F81424D207F1D5D3F81C2402F00302EC
:10304000013A012AE7D8114A12681AB10222C3F8DC
:10305000042310BDD3F80421002AFBD00022C3F8BA
:103060000421D3F80431F4E718224FF490734FF49D
:103070008071B0E720224FF492734FF40071AAE7F9
:103080001A68002AFCD018601B68E2E71C1F0020A9
:10309000F8B54FF0502301250026D3F80443174F0D
:1030A00004B9F8BDB4FA84F0C0F11F00830003F541
:1030B00080739BB203F1502305FA00F2196892B2B3
:1030C00024EA02040029EBD01E601B684FF0502355
:1030D000022AC3F808230DD1D3F81814D3F8181412
:1030E00001F00301012905D1C3F81825C3F8042311
:1030F0009960D5E73B68C0B29847D1E71C1F002014
:103100000079024B03EB0010FFF770BE2C0100208A
:10311000036803F01F025B09026004D0012B03481F
:1031200018BF002070470248704700BF0028845035
:1031300000258450034A4309D35C00F01F00184463
:10314000C0B27047706F000070B50546FFF7F2FF20
:103150000C4C083034F810300E46DA0508D5C3F3AD
:10316000432304EBC302284654F83330526898478F
:10317000A3682BB131462846E268BDE87040184785
:1031800070BD00BF3C01002008B5FFF7D3FF034B23
:10319000083033F81000400B08BD00BF3C01002090
:1031A00008B5FFF7C7FF034B083033F81000C0F332
:1031B000400008BD3C01002008B5FFF7BBFF034BF2
:1031C000083033F81000C0F3401008BD3C01002067
:1031D000034611F0010010B5CCB20BD1A207C4F325
:1031E00040000DD5074A106A58601062003818BFB9
:1031F000012005E004490A6A1A600A62002AEDD03B
:1032000010BD00BF002884500025845010B5FFF782
:1032100091FF124A083032F81030D9051CD5C3F39B
:10322000432123F4F85322F81030002002F10E0459
:1032300034F8023F13F4807F03D0C3F34323994251
:103240000AD001303028F3D1002342F8313004484D
:10325000BDE81040FFF7EABD10BD00BF3C010020F3
:10326000B4010020F0B505460020012604460746BB
:103270008C420BD1114BD3F87C2132B10022C3F820
:103280007C21D3F87C3140F00040F0BDE3B29B00DC
:1032900003F580729B0806FA03F31D420BD002F17E
:1032A000A04202F55042D2F800C0BCF1000F02D09B
:1032B0001760126818430134DAE700BF00D00050ED
:1032C000F7B506460846FFF735FF1A4F00F1080527
:1032D00037F815300C46DB072AD5304602F0C5FF1B
:1032E0002046FFF769FF58B12046FFF74DFF002247
:1032F000316800B201EB8003C3F81025C3F8102534
:103300002046FFF783FF002301A827F8153001941A
:10331000FFF7FEFE019B00EB8300D0F80022064B76
:10332000134043F00203C0F80032044803B0F0BD7C
:103330000348FBE73C010020F0F0FCFF0000AD0B70
:103340000400AD0B2DE9F0431646804685B00846D3
:10335000FFF7F0FE0D463168044609B32846FFF733
:103360001FFF18B12846FFF727FF10BB00230DF100
:103370000F02CDE900338DF80E308DF80F3028465E
:103380000B460DF10E0102F018FF484A04F1080146
:1033900032F8113023F0020343F0010322F8113018
:1033A00073687BB328461F785968FFF7F9FE10B1A0
:1033B000E9B13F4829E03D4A04F1080032F81030F5
:1033C00023F02003DB04DB0C22F8103079B1032F4B
:1033D000EFD87168D1F804E0D8F800109EF800C06A
:1033E00001EB8C01A7B9C1F81075C1F810752F4A0F
:1033F00004F1080132F8113023F01C0343EA87037B
:1034000022F81130B3683BBB2A4805B0BDE8F08311
:10341000D1F810E543EA4C332EF0030EC1F810E565
:10342000D8F8001043F0200301EB8C0EDEF81015E5
:1034300022F8103021F44F3121F44071CEF81015EC
:103440002902DEF8108501F47C5141EA074141EA86
:103450000801CEF81015CAE72846D3E90067FFF740
:10346000D5FE002ED0D0114DD5E90023964203D1D0
:103470009F4201D1002209E00F480DF10F01FFF733
:10348000B5FC0C4B9842C0D19DF80F2005EBC20350
:1034900008345F6035F8143045F8326043EA42235F
:1034A00043F4807325F81430AEE700BF3C010020E0
:1034B0000400AD0B0000AD0BB40100202DE9F0437A
:1034C0000C46804685B0204611461D46FFF732FE69
:1034D000064629B32046FFF763FE18B92046FFF7DA
:1034E0006BFE18BB334F06F1080937F8193013F09B
:1034F0001C0F02D04B78012B18D001238DF80F3010
:1035000000234A1CCDE9001320468B1C0DF10F014E
:1035100002F053FE37F8193043F0030327F819304F
:10352000002D44D02046FFF73BFE18B9224805B0D5
:10353000BDE8F083002295F800C0D8F800301D4F98
:1035400003EB8C03C3F81025C3F8102506F108021D
:1035500037F812104FEA8C0E21F02001C904C90C73
:1035600027F812106E7816B3D8F80000AD787044C2
:10357000D0F81035360423F4991323F4F853C0F827
:103580001035230203F47C5306F440362D05D0F8A1
:1035900010E5334305F480152B4341EA4C3143EAEF
:1035A0000E0341F02001C0F8103527F8121003482F
:1035B000BDE700BF3C0100200400AD0B0000AD0BD7
:1035C000014BC3E9021270473C01002010B50846C8
:1035D0001446FFF7F1FD50B10846FFF7ABFD054B70
:1035E000083033F8103004485B0B237010BD0348DB
:1035F000FCE700BF3C0100200000AD0B0400AD0B58
:1036000070B5154D064695F880401CBB21466022DA
:1036100005F1100003F017F8214630682E6F8E4236
:103620000ED10023C0F87C31D0F87C3140F3073054
:10363000FDF746FC0123094885F88030AB6770BD73
:10364000CBB29B0003F580727C2B04BF845083585F
:103650000131E4E70248F2E73C0100200000AD0B35
:103660000C00AD0B034B93F88000003818BF01200D
:10367000704700BF3C0100200148FFF7D7BB00BFE7
:10368000B00100200148FFF7B1BB00BFB00100202E
:1036900073B503681646D3F804230546002AA8BF6D
:1036A0004FF000420846A8BFC3F804230C46FFF7BA
:1036B00083FD00B30846FFF773FD0146D8B92046E5
:1036C000FFF762FD04B2A4000346286804F5807287
:1036D0008150296882582144D1F8102542F0010216
:1036E000C1F810252EB10122296802FA03F3C1F8AE
:1036F000043302B070BD2046FFF71CFD0E4B0830AE
:1037000033F81030C3F38203042B11D0052B11D0F2
:1037100001A80194FFF7FCFC019A0369D34003F070
:103720000103991C204602B0BDE8704002F08EBD36
:103730000321F7E70221F5E73C0100202DE9F04FD6
:10374000674BDFF8A091D3F80403D9F87010C0B22A
:1037500089B040F00040FFF785FD051E2EDACA460D
:1037600000235AF87C1F06A8CDE90633FFF730FD89
:103770004FF0000B5C4B0DF118080193019A12F801
:10378000013B0192DA081AF8022003F0070322FA3B
:1037900003F3DA071BD408F10408BBF1000F13D0C0
:1037A00000214FF00040FFF75DFDD9F87C1006A81E
:1037B000FFF70EFD0028DBD125F000450124002D88
:1037C00076D109B0BDE8F08F4FF0010BD6E7474B3B
:1037D0005B440293D8F800100029DCD091FAA1F1E3
:1037E000B1FA81F1029B1C7841EA44142046FFF7AC
:1037F000A1FC083039F81070C808BB0803930123F6
:1038000018F8002001F0070103FA01F122EA010291
:1038100008F8002005A80594FFF77AFC059A039B99
:10382000803250F82220C7F382065B073746C2F386
:10383000014222D520463946D6B2FFF785FC05A8BD
:103840000594FFF765FC059B803350F82330C3F3E4
:1038500001439E4207D10021204602F0F7FC314689
:10386000204602F0F3FC05A80594FFF751FC012265
:10387000059B02FA03F30362ACE7022A0CD1032191
:10388000204602F0E3FC06F00503012BEBD139469C
:103890002046FFF759FCE6E702212046039202F09A
:1038A000D5FC032EF3D0039A032ADCD1022EEDE7D8
:1038B00095FAA5F3B3FA83F304FA03F29B0003F13C
:1038C000A04303F55043D3F81005D3F81015C0F307
:1038D0000520C1F3014125EA0205FFF735FC6EE73B
:1038E00000D000503C010020806F0000806F00007D
:1038F00010B500F01F0440090ED001280ED10A4B6C
:1039000003EB8403D3F80042084841EA4201204017
:103910000143C3F8001210BD054BF1E700238034CA
:1039200053F82430FFDE00BF00288450F0F0FCFF85
:10393000002584502DE9F04F634E037989B05F0173
:1039400006EB43131B7905460C460792002B40F00B
:10395000B88091F820300A7E497D002975D094F80E
:1039600023302068002B00F0A28094F8203094F8D7
:1039700019E00193236894F816A00293636894F801
:1039800017900393A36894F818800493E36894F85D
:1039900015B005932369E26906932B6894F821C05A
:1039A00094F8220094F82410C3F804B5C3F824A5B1
:1039B000C3F82095C3F81C85C3F828E5DDF804E0BA
:1039C000C3F818E5002A78D14CEA0020C3F8102586
:1039D000C3F82C0571B9029AC3F86425039AC3F899
:1039E0006825049AC3F86025059AC3F87025069ADD
:1039F000C3F86C25079B94F82420F35194F82330E6
:103A000006EB07089B0143EAC21398F8052002F071
:103A10003F02134388F8053000232868C0F80431BA
:103A2000D0F80421C0F81431D0F81421C0F80831BE
:103A3000D0F8083140F30730FDF742FA012323485C
:103A400088F8043009B0BDE8F08F012A03D1012BBA
:103A50000BD11F48F6E7022A23D1082B05D840F2E4
:103A6000551222FA03F3D807F3D494F82330002B2D
:103A70007FF47BAF206802F028FC606802F025FC30
:103A8000A068411C01D002F020FCE068421C01D07B
:103A900002F01BFC2069431C3FF467AF02F00DFCF1
:103AA00063E7032AE1D1012BD3D9032BD0E702F03E
:103AB00004FC606802F001FCE2E7C3F8142501226F
:103AC00082E70448BEE700BF241F00200000AD0BC2
:103AD0000400AD0B0C00AD0B70B5354B02790446FC
:103AE000550103EB42121279012A5CD10A6822B116
:103AF00002F06040B0F1005F57D1486820B100F09B
:103B00006040B0F1005F50D1003A18BF01222B4451
:103B1000587903F1080562F3000058714A680126DC
:103B2000101E18BF01205A7922F01E0242EA4002FC
:103B30005A7107C985E807000022C3E905222168F8
:103B4000C1F80065022119712168C1F80421D1F87A
:103B500004112168C1F814215D79D1F8142105FA06
:103B600006F22D0102F0020205F0200521682A4329
:103B700042F00402C1F804232268D9681B8AC2F803
:103B80005035C2F83805003818BF0120C2F80805C2
:103B9000C2F84015003918BF0121C2F80C1523687E
:103BA00004481E6070BD0448FCE70448FAE700BF03
:103BB000241F00200000AD0B0500AD0B0A00AD0B6B
:103BC00070B51C4B0279550103EB42125279D206B3
:103BD0002BD50C6824B104F06042B2F1005F26D10D
:103BE0004A6822B102F06046B6F1005F1FD100685A
:103BF0000E892B44C0F85065C0F83845003C18BF0A
:103C00000124C0F80845C0F84025003A18BF012239
:103C100003F10804C0F80C2507C984E807005A79A5
:103C200005486FF304125A7170BD0448FCE704485C
:103C3000FAE700BF241F00200000AD0B0500AD0B0C
:103C40000A00AD0B0279074B03EB42135A796FF36D
:103C500004125A7122220368C3F808230122036860
:103C60005A607047241F00202DE9F8430446067966
:103C7000FFF7E8FF00681A4D40F30730FDF72EF913
:103C8000002223687701C3F8002505EB46167379F7
:103C900059061FD42368D3F86405D3F86895D3F880
:103CA0006085D3F87065D3F86C4502F00AFB48468E
:103CB00002F007FBB8F1FF3F02D0404602F001FBE3
:103CC000721C02D0304602F0FCFA631C02D020467F
:103CD00002F0F7FA00233D442B71BDE8F88300BFE2
:103CE000241F0020F0B5444A85B0D2F814312BB11E
:103CF0000023C2F81431D2F814312023D2F8041171
:103D000031B10021C2F80411D2F8042143F00203BA
:103D1000394AD2F8081131B10021C2F80811D2F89D
:103D2000082143F0040313F0200F344C0AD06279C9
:103D300042F0080202F012011229627104BF42F03F
:103D4000200262719E070AD5627942F0040202F0F5
:103D500011011129627104BF42F0200262715D07F6
:103D600016D500210422244B254DC3F80823C3F89F
:103D70000015284655F8143C984701230221237169
:103D800055F8143CA5F10C0005B0BDE8F04018470B
:103D9000637903F00F020F2A08D0D80701D419075E
:103DA00004D46279920724D45B0722D5637927680B
:103DB00013F0200603F0F30508D025F0300545F098
:103DC0001005012100203B466571DDE70C4B0DF12C
:103DD000040C45F0100593E8070065718CE80700B6
:103DE00013E90700C4E9026683E807000121604681
:103DF000B84705B0F0BD00BF00800250241F00206E
:103E0000381F002038B5EFF31185202383F3128883
:103E1000BFF36F8F064B9C6802F073FA85F311882D
:103E2000BFF36F8F2046BDE83840FCF7F1BF00BFFD
:103E3000441F002038B50A4B53F82040013053F896
:103E40002050A54200D838BD606830B1037FDB0741
:103E500001D402F059FA0834F3E723689847FAE7E7
:103E60005C6C0000012270B52A4B032086B01A70EA
:103E7000FFF7E0FFFDF766FBFCF7D6FC0420FFF739
:103E8000D9FF254C254D2646AE4204F1300410D30F
:103E900000F0EEFC204C224EAC4226D300F0FCFC9D
:103EA000FCF7C0FA1F4A137B23F00103137306B01B
:103EB00070BD54F80C3C059354F8103C049354F82E
:103EC000143C039354F8183C029354F81C3C01939F
:103ED00054F8203C009354E90A2354E90C0100F003
:103EE000E9FA54F8303C5E65CDE7D4E90A23B3F132
:103EF000FF3F08BFB2F1FF3F05D052EA030120683F
:103F000003D100F085FD3034C6E73146183000F0AB
:103F100015FFF8E74D210020786A0000786A00005C
:103F2000416500006017002008B50348034A0021DE
:103F3000121A02F000FA08BDC00200205021002031
:103F40000023012270B586B0CDE904230F2201932E
:103F5000CDE9023214234FF4A0720E4D0E4E03FB36
:103F600000550E4906EBC016044602FB00110C4B2F
:103F70003046009500F09EFA737B2C7423F0040306
:103F80007373084B013403EBC423EE606B6006B01F
:103F900070BD00BF441F0020E01600205029002003
:103FA000FD63000050210020BFB50020FFF742FF55
:103FB0002A4B03F5006282F3088883F30A88002401
:103FC000E023274D274F85F82230EC772C766C764E
:103FD000AC7685F820406B6A43F4E0236B6285F889
:103FE0002340FCF793FEFDF70FF84FF0FF33AB6271
:103FF000EB62FDF795F9FDF72BF81B4800F098FAF6
:1040000002F06BF9FDF780FA0120FFF713FF0220A1
:10401000164DFFF70FFF00F073FC154B15495D615E
:10402000154B4FF48062059301232846CDE90343E5
:10403000CDE901443B46009400F03CFA06466A7B19
:10404000284622F004026A7302F04EFA2046FFF777
:1040500077FF3A4631462846FCF7B6FF502100204C
:1040600000ED00E0653E0000E01700206017002032
:10407000441F0020902A0020826F0000002038B5E5
:10408000054C064DAC4200D338BD204602F057F92E
:104090000028F9DB1C34F5E7380200205402002028
:1040A00073B50C46EFF31181202585F31288BFF319
:1040B0006F8FC5685DB125602B68C360836901336C
:1040C0008361002081F31188BFF36F8F11E052EA02
:1040D000030603D16FF00B002560F3E7CDE9002361
:1040E0000246083000F00AFB18B9034B9B681B69B5
:1040F000236002B070BD00BF441F00202DE9F341D2
:1041000004460E4600F10808EFF31187202181F3E1
:104110001288BFF36F8F006AE168884233D2256846
:10412000AC4219D0C5B1284602F073F905F1180068
:1041300002F048FAA26800243146286902F076FAB3
:104140002846AC6702F0D0F94046394600F06AFBD9
:10415000204602B0BDE8F081A2683146E06902F075
:1041600065FA0020E369A26813446269E36193423F
:1041700004BF2369E361236A0133236287F3118853
:10418000BFF36F8FE5E752EA03010AD006494046C4
:1041900089680E61CDE900233946224600F0AEFA67
:1041A000D7E76FF02200E9E7441F0020F7B5044687
:1041B000084604F10807EFF31186202181F31288E5
:1041C000BFF36F8F216A002939D0A268A16902F07C
:1041D0002DFAA369A268256813446269A36193421A
:1041E00004BF2369A361236AAC4203F1FF33236256
:1041F00033D02846002D31D002F00BF905F118001C
:1042000002F0E0F9A2682969E06902F00FFAE369B7
:10421000A268284613446269E361934204BF23699C
:10422000E361236A013323620024AC6702F05CF986
:104230003846314600F0F6FA204603B0F0BD52EAA7
:10424000030110D0094989680861CDE9002331468E
:104250002246384600F052FAEFE7002086F3118834
:10426000BFF36F8FE9E76FF02200F7E7441F0020EC
:104270002DE9F341044617461E46EFF3118820232B
:1042800083F31288BFF36F8FC368334A7BB18068B2
:104290009168884219D057EA060318D188F311882B
:1042A000BFF36F8F6FF00F0002B0BDE8F08191682F
:1042B00091F90E100133E36093682161A36088F3E4
:1042C0001188BFF36F8F0020EEE72169F2E791F9C3
:1042D0000E1090F90E306FF07E029942A8BF194679
:1042E0009142B8BF11468B422DDD02F0AEF8054673
:1042F00022464146CDE90076184800F0FFF9002833
:10430000E1D0EFF31186202383F31288BFF36F8F80
:10431000A068D0B1236821699C420AD04BB193F9BF
:104320000E309942A8BF19466FF07E039942B8BF7C
:10433000194602F08AF840B13146084800F072FA96
:104340006FF00A00B0E70025D2E7002DF4D186F324
:104350001188BFF36F8FF3E7441F00204E21002028
:10436000F8B583680546002B3FD0234A92689342F4
:104370003ED1C368012B03D9013BC3600020F8BDC7
:10438000EFF31187202383F31288BFF36F8F016946
:10439000806802F05AF82C68A54207D10023C5E9CD
:1043A000023387F31188BFF36F8FE7E7002CF5D056
:1043B000D4E90032002613605A60637BC4E90066CA
:1043C00023F002036373A66004F1180002F0FAF808
:1043D000AC6094F90E3020462B61A66702F084F899
:1043E0003946064800F01EFAC8E76FF01500C6E728
:1043F0004FF0FF30C3E700BF441F00204E210020D4
:1044000070B5EFF31186202383F31288BFF36F8F0B
:104410000468A0421AD0CCB1D4E900320025136060
:104420005A60637BC4E9005523F002036373A560FF
:1044300004F1180002F0C6F82046A56702F054F80F
:104440003146BDE87040074800F0ECB9D0E90232CF
:104450009A4218BF0133836086F31188BFF36F8FD0
:1044600070BD00BF4E21002013B5EFF31181202451
:1044700084F31288BFF36F8F846844B1013C846079
:1044800081F31188BFF36F8F002002B010BD52EA94
:10449000030406D181F31188BFF36F8F6FF00F0013
:1044A000F3E7CDE900230246014800F027F9ECE7E5
:1044B0004E2100202DE9F043984685B000F15803C5
:1044C000C0E91633109B002603730423073222F041
:1044D000070543730F9B01EB05090F46837349469C
:1044E000C0E906668660C6730446FCF7ADFA0E9B0B
:1044F000073020F00700A066C4E9187502930D9BF1
:10450000A9EB000901930C9B4A46009339464346A8
:104510002046FCF73DFD054B66659B6803B1DB6EED
:104520004846E36605B0BDE8F08300BF441F0020A5
:1045300040F2011383810023C0E91833C366014BA5
:1045400098607047441F00206FF00A01084A936882
:104550009967084958674B6843F080534B600023C4
:1045600083F31188BFF36F8F9368986F704700BF14
:10457000441F002000ED00E070B590F90D20437B52
:10458000002A36DBD90634D11B4C63F07F03224668
:10459000437352F8183FE169934207D1C0E9002103
:1045A0000860E06111E09942F8D01B68002BF5D05B
:1045B00090F90E5093F90E60B542F4D0AE42F2DDA0
:1045C0005968C0E9003108605860A569954200D07B
:1045D00005B9E568A3685A7BD20604D1DA897F2A37
:1045E00001D9AA6932B1AB4202D0284600F004FBDF
:1045F000656170BD6361FCE7441F002038B590F928
:104600000D200146002A437B04DA03F07F03437345
:1046100001F030FF0D4D2A4652F8184FAB68944216
:1046200000D004B9EC688B4207D05A7BD20604D183
:10463000DA897F2A01D9A2692AB1A34202D0204691
:1046400000F0DAFA23466B6138BD00BF441F00203A
:10465000B3F1FF3F08BFB2F1FF3F03D0024918306A
:1046600000F06CBB704700BF4165000070B590F969
:104670000D200146002A437B04DA03F07F034373D5
:1046800001F0F8FE1C4C4B7B224663F07F034B731A
:1046900052F8183FE069934207D1C1E90020016058
:1046A000E16111E09842F8D01B68002BF5D091F938
:1046B0000E5093F90E60B542F4D0AE42F2DD586868
:1046C000C1E9003001605960A569A368954200D036
:1046D00005B9E5688B4207D05A7BD20604D1DA8946
:1046E0007F2A01D9AA692AB1AB4202D0284600F03C
:1046F00083FA2B46636170BD441F0020F8B5DDE9E5
:1047000006670D4B0C46986811460C4A1060EFF393
:104710001182202282F31288BFF36F8F9D68284692
:1047200001F0BAFE284632463B46FFF791FF20468D
:10473000BDE8F840FFF708BF441F0020641F0020B9
:10474000F8B50446EFF31187202383F31288BFF3F3
:104750006F8F437B49B203F01F02002A0CBF012672
:10476000002639D103F07F032D4D437301F082FE03
:104770002A46437B817363F07F03437352F8183FEB
:10478000934227D1E869C4E900200460EC610FE09E
:104790009842F8D01B68002BF5D093F90EC0614504
:1047A000F6D08C45F4DD5968C4E900310C605C60DA
:1047B000AC69944200D004B9EC68AB689C4202D06A
:1047C000204600F019FA6C6187F31188BFF36F8FF0
:1047D0003046F8BDE869DEE79B071ED5856801F025
:1047E00049FE81732B689D4209D16B68C4E900536F
:1047F0001C606C60E8E76A689342F6D01B68002B87
:10480000F3D093F90E209142F5D08A42F3DD5A6835
:10481000C4E9003214605C60D6E78173D4E700BF5E
:10482000441F002049B9EFF3058030B9054B5A69A0
:104830009B689A4201D0FFF787BE81F31188BFF3CE
:104840006F8F7047441F0020034648B9EFF305827D
:1048500032B9064A51699268914201D0FFF774BE9D
:1048600083F31188BFF36F8F704700BF441F002090
:10487000EFF31181202383F31288BFF36F8F054B71
:104880009A68D37B013BD37381F31188BFF36F8F99
:10489000704700BF441F002070B5EFF3118620233E
:1048A00083F31288BFF36F8F144DAB68DA7B01324C
:1048B000DA732A4652F8184F944200D004B9EC68D3
:1048C0005A7BD20604D1DA897F2A01D9A2692AB19A
:1048D000A34202D0204600F08FF923466B6186F395
:1048E0001188BFF36F8FEFF31180202383F31288B9
:1048F000BFF36F8FBDE87040FFF7A6BF441F0020D5
:10490000024B03F11802C3E906227047441F00203E
:1049100070B5EFF31186202383F31288BFF36F8FF6
:104920001B4CA168E0690B68814214BF1A46002243
:1049300049680B605960A368E1692AB9154AC3E95F
:1049400000210B60E3610CE093F90E0092F90E5028
:10495000A84218D0854216DD5168C3E900210B60DA
:104960005360A5690B4B9D4200D005B9E568A3686B
:104970009D4202D0284600F03FF965613046BDE80F
:104980007040FFF7E1BD8A42D8D01268D5E700BF7A
:10499000441F00205C1F0020F8B550EA01030646C2
:1049A0000C4603D1FFF7B4FF0020F8BDEFF31187E9
:1049B000202383F31288BFF36F8F124D124BA86828
:1049C0001860FFF71BFEA868234632460F491830CF
:1049D00000F0B4F9AA680446537B384643F0040358
:1049E0005373FFF7B1FDAB68D3E90A23B3F1004F6E
:1049F00008BF002AD8D101F00DFE201A20EAE0708D
:104A0000D3E700BF441F0020641F00204165000061
:104A100038B50446EFF31185202383F31288BFF3E2
:104A20006F8F437B5B070FD5183001F0CBFD637BA5
:104A3000204623F004036373FFF79EFD2946BDE87B
:104A400038400448FFF7EEBE85F31188BFF36F8F3F
:104A500038BD00BF4E210020014B9868704700BF51
:104A6000441F00202DE9F8430446077BEFF311852E
:104A7000202383F31288BFF36F8F437B190705D57B
:104A800085F31188BFF36F8FBDE8F883D90943F030
:104A900008025AD14273A36813B1204601F0F2FC18
:104AA00004F1180001F08EFDA66D04F15808B04520
:104AB00011D04FF0000976B1304601F0E3FC06F169
:104AC000180001F07FFD3046C6F87890FFF754FDDE
:104AD000A66DB045EFD1DFF8B880D8F808309C4219
:104AE0003BD1EFF30589B9F1000918BF4FF0010977
:104AF000D8F81860274A964200D00EB9D8F80C6052
:104B0000B34202D0304600F077F8C8F81460B9F12B
:104B1000000F02D02048FFF70BFDD8F808309C4268
:104B200031D1EFF3058373BB227BD20718D428461B
:104B3000FFF70AFDFB07A7D5002383F31188BFF316
:104B40006F8F0423184602DF9EE703F07F0343F0D4
:104B50000803437301F08EFC9DE74FF00009C7E79F
:104B600085F31188BFF36F8F83F31188BFF36F8FC5
:104B70000423184602DFEFF31180202383F3128809
:104B8000BFF36F8FD4E785F31188BFF36F8FD1E741
:104B9000441F00205C1F0020E01700200122044B6E
:104BA000C01A044BC0105843034B1A54704700BF3F
:104BB00060180020ABAAAAAA4E210020C3897F2B2F
:104BC00012D80A4B1B6863B1094B90F90E201B6881
:104BD0009A4209DB437BDB0606D1064BC31A18BF9A
:104BE000012303F0010070470023FAE7C001002011
:104BF000681F0020E016002070B50E4B0E4C1E7C86
:104C0000054606EB460304EBC304204601F0DAFC3C
:104C100000220A4B28469A55FFF7D0FF48B1084BAF
:104C20002046BDE870401A680649013AD31700F0E3
:104C300085B870BD441F0020601800204E21002060
:104C4000C00100209D4B000038B5EFF311852023F3
:104C500083F31288BFF36F8F104B114A9C68106862
:104C6000A04206D1FFF7C8FF85F31188BFF36F8F0D
:104C700038BD00211B7C11600A4AD35C002BF3D0A5
:104C80002046FFF79BFF0028EED0637BDB0602D1B6
:104C90002046FFF7EBFC2046E4E700BF441F00205E
:104CA000641F00204E210020074808B5074A084924
:104CB000121A01F042FBBDE808400648064A0749BF
:104CC000121A01F03ABB00BF00000020A40200202D
:104CD000986F00000000002000000020986F000086
:104CE000024B1868984208BF00207047C40100209A
:104CF000034B1B680BB9FDF77BBF0020704700BF5B
:104D00006C1F002030B570B10B4B5B6898420AD025
:104D1000036843B1D3E90421D0E90445121941EBFA
:104D20000501C3E90421D0E9003213605A60002371
:104D3000C0E9003330BD00BFC4010020B3F1FF3F24
:104D400008BFB2F1FF3F2DE9F84F044699461546DA
:104D50001F467BD08160EFF31188202383F31288F4
:104D6000BFF36F8F013279F1FF33DFF8E8A020DB6A
:104D7000FFF7BEFFDAE90027013549F100092D18D8
:104D800049EBE07306464FF00109C4E90453AD183E
:104D900043EB0707FFF7A4FF0346DFF8BCE0DEF8AC
:104DA00004A0EBB9C4E900EACAF80040CEF8044018
:104DB00028E06FF00103DAE900125B1A4FF0FF31CF
:104DC00061EB02025B1B62EB0902012B72F1000135
:104DD000BCBF012300224FF00009C0E90432D9E72B
:104DE000D3E9041CD4E904208A4270EB0C0B24DACA
:104DF000891A5A686CEB0000C3E90410C4E9003258
:104E000014605C60FFF76CFF84420ED1134B1B688B
:104E10005BB9B9F1000F02D1FFF76AFF06463046D1
:104E200001F0B9FB0021FDF7B5FE88F31188BFF34F
:104E30006F8F28463946BDE8F88F521A60EB0C0098
:104E40009A45C4E90420ADD01B68AAE700252F4687
:104E5000EFE700BF78180020C40100206C1F00207D
:104E60002DE9F047EFF31185202383F31288BFF378
:104E70006F8FDFF8A0900026C9F800000027FFF729
:104E80002FFFDFF89480D9F80030D8E900ECD9176B
:104E900050B1D0E90442A34271EB020A1BDAE41AD2
:104EA00062EB0102C0E90442002413EB0E034CEB59
:104EB00001012046C8E90031C9F8004001F06BFB50
:104EC0002146FDF767FE85F31188BFF36F8FBDE8BC
:104ED000F047FFF7B9BE14EB0E024CEBE473C0E9E8
:104EE0000467C8E90023FFF70DFF85F31188BFF3BE
:104EF0006F8F83689847EFF31185202383F312881F
:104F0000BFF36F8FD9F800301B1BC9F80030FFF7D3
:104F1000E7FEB8E76C1F00207818002010B5EFF30B
:104F20001184202383F31288BFF36F8FFFF7E0FE15
:104F30000346054AD2E90001181841EBE37184F3F6
:104F40001188BFF36F8F10BD7818002038B5064C5C
:104F5000064DAC4201D3002038BD2046D4E90112F1
:104F600001F05CFB1434F4E75402002054020020EA
:104F700010B50A4C23681BB101232360002010BD2B
:104F800000F0F4F80028F7D00138072803D8044BC4
:104F900053F8200010BD034810BD00BF701F002053
:104FA000746C0000FE8FFFFFBFF34F8F0549064B67
:104FB000CA6802F4E0621343CB60BFF34F8F00BFB7
:104FC000FDE700BF00ED00E00400FA0530B44FF04B
:104FD000FE3200250B4B0C4C0C494968C3F80024E9
:104FE000C3F80424C3F80824C3F80C24C3F810241D
:104FF000C3F81424C3F81824C3F81C24C4F80055BB
:1050000030BC08470050845000408450CC01002040
:10501000024BD0E90012C3E900127047CC01002016
:1050200010B5044650B1636813F0685F05D0064AB6
:10503000934202D000236260236010BD034B0448FA
:105040005B689847EFE700BF2C5F5CA9CC010020AC
:10505000946C0000C8B143680D4A934213D013F01A
:10506000685F0ED0012350E8002F194640E8001C6D
:105070009CF0000FF7D1012AF5D0BFF35F8F00201D
:10508000704704487047044870476FF4E040704729
:105090002C5F5CA9E98FFFFFEA8FFFFF034680B119
:1050A000426809498A420AD012F0685F05D0BFF30E
:1050B0005F8F002210461A6070470448704704480A
:1050C00070476FF4E04070472C5F5CA9E98FFFFFE9
:1050D000EA8FFFFF10B5044620B10023034A236086
:1050E000626010BD0248FFF771FFF6E73A00003A30
:1050F000BC6C000070B5194CD0F804C00668C4F848
:1051000004C0D0F808C0C068C4F808C0E0602660D9
:105110000868134B134D18604868D5F8182158607B
:10512000886812F0685F9860C8680969D86019617A
:1051300012D000230C4A05F58A70C5F81431C5F861
:10514000B831C5F81821C5F8BC21B047236805F56A
:10515000DC70BDE87040184770BD00BFE80100205A
:10516000D4010020881F00202C5F5CA908B500F046
:1051700011F830B900F010F838B9054AC2F80C0A35
:1051800008BD00F037F8032008BD042008BD00BFAB
:10519000005084500020704710B5114800F048F8C6
:1051A00000B110BD0F4800F043F80028F9D10E4CB3
:1051B000204600F03DF80028F3D10C4B0C481C6051
:1051C00000F036F801460028EBD100F02DF8044637
:1051D00008B1204610BD00F03FF82046FAE700BFB6
:1051E00028020020240200202002002018020020B3
:1051F0001C02002008B5084800F024F8074800F019
:1052000021F8074800F01EF8064800F01BF8BDE83A
:10521000084000F00BB800BF280200202402002044
:10522000200200201C02002000207047704700BFB1
:1052300008B5034B02681B6810689847002008BD3A
:10524000E801002008B5034B02685B6810689847C6
:10525000002008BDE801002070B5094C094D206907
:10526000AB68984718B1084B08485B68984700211D
:10527000074AEB6811602069BDE87040184700BF1D
:10528000D4010020E8010020CC010020E06C0000E7
:10529000841F00200FB407B504AA064B52F8041B64
:1052A0001868019200F028F803B05DF804EB04B030
:1052B000704700BF486B0000F8B50E4B06461D68EE
:1052C000AB789B0712D56F6816F8014B29462CB9AD
:1052D0000A20B847002805DB204609E02046B847E9
:1052E0000028F1DAAB7843F00403AB704FF0FF30E5
:1052F000F8BD00BF486B00002DE9F04F43688DB04A
:1053000015468046029383789A0740F10D81002468
:105310000E78002E00F00A81252E0BD04B1C039333
:10532000013441463046029B98470028C0F2F6807F
:105330000399EDE74E788B1C252E0393F0D00027C0
:10534000B946BB46BBF11F0F38D8A6F12003102B7E
:105350000AD8DFE803F02A090930090909210909F7
:105360000928092D09091F00A6F13003092B33D99B
:105370002A2E37D11BF0400F55F8043B40F08280B5
:10538000002BA7BF4BF0200B9946C3F100094BF04F
:10539000280B01E04BF0010B039B13F8016B039307
:1053A000002ECFD130E04BF0020B4BF0040BF3E7B3
:1053B0004BF0080BF0E74BF0100BEDE7BBF17F0F64
:1053C00019D8A6F13003092BD2D81BF0400F03D017
:1053D0000A2101FB0737DFE70A214BF0200B01FB15
:1053E0000939D9E72E2E06D11BF0400F40F09E80E0
:1053F0004BF0400BD0E76C2E31D02BD8682E36D036
:105400006A2E3CD04C2E3AD0002F46F02003B8BF75
:105410002BF04002A3F16501BCBF00271FFA82FBFD
:10542000022901D9612B2FD107350727DFF8ACA25C
:1054300025F0070508351BF0080F66D00AEB070BAF
:1054400056465E4563D1A4EB0A0AA9EB070906EBB1
:105450000A026FE1742E9FD07A2E9DD0D4E71BF004
:10546000800F18BF4BF4007B4BF0800B94E71BF4CC
:10547000807F18BF4BF4007B4BF4807B8CE74BF4B0
:10548000207B89E71F4687E7A6F16301122900F216
:10549000F080DFE811F013004F00EE00EE00EE00A8
:1054A000EE004F00EE00EE00EE00EE00EE00FE001B
:1054B000E900EE00EE001B00EE00AF0055F8043BE3
:1054C00001270DF1180A8DF81830B4E755F804AB30
:1054D000834BBAF1000F08BF9A461BF0400F5046AD
:1054E00014BF39464FF0FF3101F0C5F80746A2E777
:1054F00041462020029B984700280FDB013EB7421F
:10550000F6D34C44B146A41B98E74E46F7E7414614
:1055100016F8010B029B9847002892DA98F802309F
:1055200043F0040388F802304FF0FF3420460DB0FA
:10553000BDE8F08F1BF0800F34D01BF4007F2CD01F
:10554000073525F00705AA4669685AF8080B2BF0BD
:1055500010050029ADB237DA404245F4806561EBB1
:1055600041010DF1180B0A235A4601F090F8A0EB07
:105570000B0301936B0662D5019B25F001019F424D
:1055800089B240F3A180002E00F0998015F010023E
:1055900040F09C80BB460D4623E0AA465AF8040B17
:1055A000C117D4E7AA461BF4807F5AF8041B01D127
:1055B0000846F5E71BF4007F19BF48B241F3C0115C
:1055C00008B241F3C031C2E750EA0103C9D11BF070
:1055D000400FC6D0002FC4D12BF01102BB4601975B
:1055E00095B240F2064115EA01021CBF0BF1010B16
:1055F00000222CE02BF010020A231FFA82FB1BF082
:10560000800C49D01BF4007115BF0735AA4625F060
:1056100007055AF8040B1EBFAA4669685AF8080B1A
:1056200050EA010545D12BF016051BF0400FADB235
:1056300042D0002F40D12BF01702019795B215F000
:10564000100248D0019B002E42D103F1010B290723
:105650005AD4EB0706D5D9456FDDA9EB0B030199A9
:10566000CB465F185B4649E04BF0100B10237826C1
:10567000C5E7782B04D1C6F1780343F01003BEE7E9
:1056800041462520029B98470028FFF647AF023489
:1056900047E608230026B2E7AA461BF480715AF8B1
:1056A000040BBDD01BF400711ABFC0B2614680B2BA
:1056B000B6E72BF0060295B20DF1180B54E725F072
:1056C0001105BB46ADB28CE70D46B8E73B460D462B
:1056D00003F1020BBBE7DDF804B082E78E6F000038
:1056E000876F0000CDE9043241462020029B984795
:1056F0000028FFF613AF049B059A01339945F1DCAE
:10570000A4EB0B019B46CC180AB341463020029B08
:1057100098470028FFF602AF8EB901342744391BA1
:10572000019B994224DC1D4655BB019AA9EB0B094C
:10573000554622441446914433E0019F92E70234D7
:1057400041463046029B98470028E7DAE6E640F2F9
:1057500006410D42E2D015F0020F04F1010441466A
:1057600014BF2B20202015F4806F18BF2D20E9E7EF
:1057700041463020029B013498470028CFDACDE61D
:1057800006AB013D4146585D029B98470028CBDAA5
:10579000C4E641462020029B013498470028FFF6CA
:1057A000BDAEA9EB0403002BF3DCC1E570478368B1
:1057B00000EBC101B3F5004F2CBF51F8220031F8C6
:1057C0001200704700EBC1018068B0F5004F2CBF9C
:1057D00041F8223021F812307047012208B5FFF756
:1057E000E6FFD04008BD836800EBC101B3F5004F70
:1057F00008D34B681AB143F001034B60704723F0A4
:105800000103FAE74B881AB143F001034B8070475C
:1058100023F00103FAE753000122FFF7D3BFB0F5ED
:10582000004F34BF04230823481C0833A0EBD300E7
:10583000B0FA80F0C0F11F0070472DE9F0410D462D
:1058400086680446FFF7C9FFB6F5004F014601D34D
:10585000012832D03046FFF7E2FF04EB80010E69E9
:1058600096B90122E36882401343E36002220D618E
:105870002B4629462046FFF7A5FF0322294620464E
:10588000BDE8F041FFF79EBF022231462046FFF7F8
:105890008EFF0746034629462046FFF793FF032263
:1058A000334629462046FFF78DFF39462B462046D2
:1058B000FFF788FF02223146E1E7BDE8F081B2F54B
:1058C000802F2CBF082304232DE9F0410026D21A93
:1058D0008C18CD1D25F0070524F00704641BE4088F
:1058E000056021462046AC60EE60FFF798FF421D40
:1058F0009200013002F107074FEAD7073146A2F1C3
:10590000100205F11000B8BF324600F09CFE3A4686
:1059100031462846FFF77FFF334632463146284658
:10592000FFF750FFA4EB0708284631460122FFF796
:105930005AFF42463946FFF76EFF3B46324639462C
:105940002846FFF73FFF21462846FFF764FF4346FE
:10595000324621462846FFF735FF214628460122D8
:10596000FFF741FF3946BDE8F041FFF766BF002071
:1059700070470FB407B504A951F8040B0191FAF769
:105980000DFE03B05DF804EB04B07047038B13F019
:10599000070305D10368002B0CBF002003207047CC
:1059A000022B05D1408BB0FA80F04009800070478F
:1059B000012B05D10368002B0CBF00200520704788
:1059C0000020704710B50C4600B111B96FF01500FA
:1059D00010BD081D00F0B7F80028F9D1A368032B0B
:1059E000F6D9F3E72DE9F0410D4607461946281D83
:1059F00090461E4600F0B8F8044638B13346424699
:105A000029463846A446BDE8F0416047BDE8F0812C
:105A100010B4EFF31182202484F31288BFF36F8F48
:105A2000416110BC0121FAF7EBBD38B50C460546C3
:105A300058B151B10B6843B14B6833B11C220021FE
:105A400000F001FE00202C6138BD6FF01500FBE76F
:105A500070B505460E46FFF7B5FF041E14DBEFF3E5
:105A60001182202383F31288BFF36F8F4FF6FF71EB
:105A70006B8B2C8B8B4204F0070407D182F31188C7
:105A8000BFF36F8F6FF00A04204670BD022C0CD15B
:105A900001336B8382F31188BFF36F8F002322469B
:105AA00031462846FFF79EFFEEE7062C14D8DFE8C4
:105AB00004F004131313041A0400002333606B680A
:105AC0003BB9C5E90066ACB902212846FAF798FD52
:105AD000DAE71E606E60F6E782F31188BFF36F8F1E
